{"abi":[{"type":"constructor","inputs":[{"name":"_name","type":"string","internalType":"string"},{"name":"_symbol","type":"string","internalType":"string"},{"name":"_baseURI","type":"string","internalType":"string"}],"stateMutability":"nonpayable"},{"type":"function","name":"approve","inputs":[{"name":"to","type":"address","internalType":"address"},{"name":"tokenId","type":"uint256","internalType":"uint256"}],"outputs":[],"stateMutability":"nonpayable"},{"type":"function","name":"balanceOf","inputs":[{"name":"owner","type":"address","internalType":"address"}],"outputs":[{"name":"","type":"uint256","internalType":"uint256"}],"stateMutability":"view"},{"type":"function","name":"baseURI","inputs":[],"outputs":[{"name":"","type":"string","internalType":"string"}],"stateMutability":"view"},{"type":"function","name":"getApproved","inputs":[{"name":"tokenId","type":"uint256","internalType":"uint256"}],"outputs":[{"name":"","type":"address","internalType":"address"}],"stateMutability":"view"},{"type":"function","name":"isApprovedForAll","inputs":[{"name":"owner","type":"address","internalType":"address"},{"name":"operator","type":"address","internalType":"address"}],"outputs":[{"name":"","type":"bool","internalType":"bool"}],"stateMutability":"view"},{"type":"function","name":"maxSupply","inputs":[],"outputs":[{"name":"","type":"uint256","internalType":"uint256"}],"stateMutability":"view"},{"type":"function","name":"mint","inputs":[],"outputs":[],"stateMutability":"payable"},{"type":"function","name":"mintPrice","inputs":[],"outputs":[{"name":"","type":"uint256","internalType":"uint256"}],"stateMutability":"view"},{"type":"function","name":"name","inputs":[],"outputs":[{"name":"","type":"string","internalType":"string"}],"stateMutability":"view"},{"type":"function","name":"owner","inputs":[],"outputs":[{"name":"","type":"address","internalType":"address"}],"stateMutability":"view"},{"type":"function","name":"ownerOf","inputs":[{"name":"tokenId","type":"uint256","internalType":"uint256"}],"outputs":[{"name":"","type":"address","internalType":"address"}],"stateMutability":"view"},{"type":"function","name":"renounceOwnership","inputs":[],"outputs":[],"stateMutability":"nonpayable"},{"type":"function","name":"safeTransferFrom","inputs":[{"name":"from","type":"address","internalType":"address"},{"name":"to","type":"address","internalType":"address"},{"name":"tokenId","type":"uint256","internalType":"uint256"}],"outputs":[],"stateMutability":"nonpayable"},{"type":"function","name":"safeTransferFrom","inputs":[{"name":"from","type":"address","internalType":"address"},{"name":"to","type":"address","internalType":"address"},{"name":"tokenId","type":"uint256","internalType":"uint256"},{"name":"data","type":"bytes","internalType":"bytes"}],"outputs":[],"stateMutability":"nonpayable"},{"type":"function","name":"setApprovalForAll","inputs":[{"name":"operator","type":"address","internalType":"address"},{"name":"approved","type":"bool","internalType":"bool"}],"outputs":[],"stateMutability":"nonpayable"},{"type":"function","name":"setBaseURI","inputs":[{"name":"_baseURI","type":"string","internalType":"string"}],"outputs":[],"stateMutability":"nonpayable"},{"type":"function","name":"setMintPrice","inputs":[{"name":"_mintPrice","type":"uint256","internalType":"uint256"}],"outputs":[],"stateMutability":"nonpayable"},{"type":"function","name":"supportsInterface","inputs":[{"name":"interfaceId","type":"bytes4","internalType":"bytes4"}],"outputs":[{"name":"","type":"bool","internalType":"bool"}],"stateMutability":"view"},{"type":"function","name":"symbol","inputs":[],"outputs":[{"name":"","type":"string","internalType":"string"}],"stateMutability":"view"},{"type":"function","name":"tokenByIndex","inputs":[{"name":"index","type":"uint256","internalType":"uint256"}],"outputs":[{"name":"","type":"uint256","internalType":"uint256"}],"stateMutability":"view"},{"type":"function","name":"tokenOfOwnerByIndex","inputs":[{"name":"owner","type":"address","internalType":"address"},{"name":"index","type":"uint256","internalType":"uint256"}],"outputs":[{"name":"","type":"uint256","internalType":"uint256"}],"stateMutability":"view"},{"type":"function","name":"tokenURI","inputs":[{"name":"tokenId","type":"uint256","internalType":"uint256"}],"outputs":[{"name":"","type":"string","internalType":"string"}],"stateMutability":"view"},{"type":"function","name":"totalSupply","inputs":[],"outputs":[{"name":"","type":"uint256","internalType":"uint256"}],"stateMutability":"view"},{"type":"function","name":"transferFrom","inputs":[{"name":"from","type":"address","internalType":"address"},{"name":"to","type":"address","internalType":"address"},{"name":"tokenId","type":"uint256","internalType":"uint256"}],"outputs":[],"stateMutability":"nonpayable"},{"type":"function","name":"transferOwnership","inputs":[{"name":"newOwner","type":"address","internalType":"address"}],"outputs":[],"stateMutability":"nonpayable"},{"type":"function","name":"withdraw","inputs":[],"outputs":[],"stateMutability":"nonpayable"},{"type":"event","name":"Approval","inputs":[{"name":"owner","type":"address","indexed":true,"internalType":"address"},{"name":"approved","type":"address","indexed":true,"internalType":"address"},{"name":"tokenId","type":"uint256","indexed":true,"internalType":"uint256"}],"anonymous":false},{"type":"event","name":"ApprovalForAll","inputs":[{"name":"owner","type":"address","indexed":true,"internalType":"address"},{"name":"operator","type":"address","indexed":true,"internalType":"address"},{"name":"approved","type":"bool","indexed":false,"internalType":"bool"}],"anonymous":false},{"type":"event","name":"NFTMinted","inputs":[{"name":"minter","type":"address","indexed":false,"internalType":"address"},{"name":"tokenId","type":"uint256","indexed":false,"internalType":"uint256"}],"anonymous":false},{"type":"event","name":"OwnershipTransferred","inputs":[{"name":"previousOwner","type":"address","indexed":true,"internalType":"address"},{"name":"newOwner","type":"address","indexed":true,"internalType":"address"}],"anonymous":false},{"type":"event","name":"Transfer","inputs":[{"name":"from","type":"address","indexed":true,"internalType":"address"},{"name":"to","type":"address","indexed":true,"internalType":"address"},{"name":"tokenId","type":"uint256","indexed":true,"internalType":"uint256"}],"anonymous":false},{"type":"error","name":"ERC721EnumerableForbiddenBatchMint","inputs":[]},{"type":"error","name":"ERC721IncorrectOwner","inputs":[{"name":"sender","type":"address","internalType":"address"},{"name":"tokenId","type":"uint256","internalType":"uint256"},{"name":"owner","type":"address","internalType":"address"}]},{"type":"error","name":"ERC721InsufficientApproval","inputs":[{"name":"operator","type":"address","internalType":"address"},{"name":"tokenId","type":"uint256","internalType":"uint256"}]},{"type":"error","name":"ERC721InvalidApprover","inputs":[{"name":"approver","type":"address","internalType":"address"}]},{"type":"error","name":"ERC721InvalidOperator","inputs":[{"name":"operator","type":"address","internalType":"address"}]},{"type":"error","name":"ERC721InvalidOwner","inputs":[{"name":"owner","type":"address","internalType":"address"}]},{"type":"error","name":"ERC721InvalidReceiver","inputs":[{"name":"receiver","type":"address","internalType":"address"}]},{"type":"error","name":"ERC721InvalidSender","inputs":[{"name":"sender","type":"address","internalType":"address"}]},{"type":"error","name":"ERC721NonexistentToken","inputs":[{"name":"tokenId","type":"uint256","internalType":"uint256"}]},{"type":"error","name":"ERC721OutOfBoundsIndex","inputs":[{"name":"owner","type":"address","internalType":"address"},{"name":"index","type":"uint256","internalType":"uint256"}]},{"type":"error","name":"OwnableInvalidOwner","inputs":[{"name":"owner","type":"address","internalType":"address"}]},{"type":"error","name":"OwnableUnauthorizedAccount","inputs":[{"name":"account","type":"address","internalType":"address"}]}],"bytecode":{"object":"0x6080604052662386f26fc10000600b556064600c5534801561001f575f5ffd5b506040516137b53803806137b58339818101604052810190610041919061030d565b338383815f908161005291906105c1565b50806001908161006291906105c1565b5050505f73ffffffffffffffffffffffffffffffffffffffff168173ffffffffffffffffffffffffffffffffffffffff16036100d5575f6040517f1e4fbdf70000000000000000000000000000000000000000000000000000000081526004016100cc91906106cf565b60405180910390fd5b6100e4816100fd60201b60201c565b5080600d90816100f491906105c1565b505050506106e8565b5f600a5f9054906101000a900473ffffffffffffffffffffffffffffffffffffffff16905081600a5f6101000a81548173ffffffffffffffffffffffffffffffffffffffff021916908373ffffffffffffffffffffffffffffffffffffffff1602179055508173ffffffffffffffffffffffffffffffffffffffff168173ffffffffffffffffffffffffffffffffffffffff167f8be0079c531659141344cd1fd0a4f28419497f9722a3daafe3b4186f6b6457e060405160405180910390a35050565b5f604051905090565b5f5ffd5b5f5ffd5b5f5ffd5b5f5ffd5b5f601f19601f8301169050919050565b7f4e487b71000000000000000000000000000000000000000000000000000000005f52604160045260245ffd5b61021f826101d9565b810181811067ffffffffffffffff8211171561023e5761023d6101e9565b5b80604052505050565b5f6102506101c0565b905061025c8282610216565b919050565b5f67ffffffffffffffff82111561027b5761027a6101e9565b5b610284826101d9565b9050602081019050919050565b8281835e5f83830152505050565b5f6102b16102ac84610261565b610247565b9050828152602081018484840111156102cd576102cc6101d5565b5b6102d8848285610291565b509392505050565b5f82601f8301126102f4576102f36101d1565b5b815161030484826020860161029f565b91505092915050565b5f5f5f60608486031215610324576103236101c9565b5b5f84015167ffffffffffffffff811115610341576103406101cd565b5b61034d868287016102e0565b935050602084015167ffffffffffffffff81111561036e5761036d6101cd565b5b61037a868287016102e0565b925050604084015167ffffffffffffffff81111561039b5761039a6101cd565b5b6103a7868287016102e0565b9150509250925092565b5f81519050919050565b7f4e487b71000000000000000000000000000000000000000000000000000000005f52602260045260245ffd5b5f60028204905060018216806103ff57607f821691505b602082108103610412576104116103bb565b5b50919050565b5f819050815f5260205f209050919050565b5f6020601f8301049050919050565b5f82821b905092915050565b5f600883026104747fffffffffffffffffffffffffffffffffffffffffffffffffffffffffffffffff82610439565b61047e8683610439565b95508019841693508086168417925050509392505050565b5f819050919050565b5f819050919050565b5f6104c26104bd6104b884610496565b61049f565b610496565b9050919050565b5f819050919050565b6104db836104a8565b6104ef6104e7826104c9565b848454610445565b825550505050565b5f5f905090565b6105066104f7565b6105118184846104d2565b505050565b5b81811015610534576105295f826104fe565b600181019050610517565b5050565b601f8211156105795761054a81610418565b6105538461042a565b81016020851015610562578190505b61057661056e8561042a565b830182610516565b50505b505050565b5f82821c905092915050565b5f6105995f198460080261057e565b1980831691505092915050565b5f6105b1838361058a565b9150826002028217905092915050565b6105ca826103b1565b67ffffffffffffffff8111156105e3576105e26101e9565b5b6105ed82546103e8565b6105f8828285610538565b5f60209050601f831160018114610629575f8415610617578287015190505b61062185826105a6565b865550610688565b601f19841661063786610418565b5f5b8281101561065e57848901518255600182019150602085019450602081019050610639565b8683101561067b5784890151610677601f89168261058a565b8355505b6001600288020188555050505b505050505050565b5f73ffffffffffffffffffffffffffffffffffffffff82169050919050565b5f6106b982610690565b9050919050565b6106c9816106af565b82525050565b5f6020820190506106e25f8301846106c0565b92915050565b6130c0806106f55f395ff3fe608060405260043610610180575f3560e01c80636817c76c116100d0578063a22cb46511610089578063d5abeb0111610063578063d5abeb011461054a578063e985e9c514610574578063f2fde38b146105b0578063f4a0a528146105d857610180565b8063a22cb465146104be578063b88d4fde146104e6578063c87b56dd1461050e57610180565b80636817c76c146103c45780636c0360eb146103ee57806370a0823114610418578063715018a6146104545780638da5cb5b1461046a57806395d89b411461049457610180565b806323b872dd1161013d57806342842e0e1161011757806342842e0e146102fc5780634f6ccce71461032457806355f804b3146103605780636352211e1461038857610180565b806323b872dd146102825780632f745c59146102aa5780633ccfd60b146102e657610180565b806301ffc9a71461018457806306fdde03146101c0578063081812fc146101ea578063095ea7b3146102265780631249c58b1461024e57806318160ddd14610258575b5f5ffd5b34801561018f575f5ffd5b506101aa60048036038101906101a59190612274565b610600565b6040516101b791906122b9565b60405180910390f35b3480156101cb575f5ffd5b506101d4610679565b6040516101e19190612342565b60405180910390f35b3480156101f5575f5ffd5b50610210600480360381019061020b9190612395565b610708565b60405161021d91906123ff565b60405180910390f35b348015610231575f5ffd5b5061024c60048036038101906102479190612442565b610723565b005b610256610739565b005b348015610263575f5ffd5b5061026c610826565b604051610279919061248f565b60405180910390f35b34801561028d575f5ffd5b506102a860048036038101906102a391906124a8565b610832565b005b3480156102b5575f5ffd5b506102d060048036038101906102cb9190612442565b610931565b6040516102dd919061248f565b60405180910390f35b3480156102f1575f5ffd5b506102fa6109d5565b005b348015610307575f5ffd5b50610322600480360381019061031d91906124a8565b610a8f565b005b34801561032f575f5ffd5b5061034a60048036038101906103459190612395565b610aae565b604051610357919061248f565b60405180910390f35b34801561036b575f5ffd5b5061038660048036038101906103819190612624565b610b20565b005b348015610393575f5ffd5b506103ae60048036038101906103a99190612395565b610b3b565b6040516103bb91906123ff565b60405180910390f35b3480156103cf575f5ffd5b506103d8610b4c565b6040516103e5919061248f565b60405180910390f35b3480156103f9575f5ffd5b50610402610b52565b60405161040f9190612342565b60405180910390f35b348015610423575f5ffd5b5061043e6004803603810190610439919061266b565b610bde565b60405161044b919061248f565b60405180910390f35b34801561045f575f5ffd5b50610468610c94565b005b348015610475575f5ffd5b5061047e610ca7565b60405161048b91906123ff565b60405180910390f35b34801561049f575f5ffd5b506104a8610ccf565b6040516104b59190612342565b60405180910390f35b3480156104c9575f5ffd5b506104e460048036038101906104df91906126c0565b610d5f565b005b3480156104f1575f5ffd5b5061050c6004803603810190610507919061279c565b610d75565b005b348015610519575f5ffd5b50610534600480360381019061052f9190612395565b610d9a565b6040516105419190612342565b60405180910390f35b348015610555575f5ffd5b5061055e610e16565b60405161056b919061248f565b60405180910390f35b34801561057f575f5ffd5b5061059a6004803603810190610595919061281c565b610e1c565b6040516105a791906122b9565b60405180910390f35b3480156105bb575f5ffd5b506105d660048036038101906105d1919061266b565b610eaa565b005b3480156105e3575f5ffd5b506105fe60048036038101906105f99190612395565b610f2e565b005b5f7f780e9d63000000000000000000000000000000000000000000000000000000007bffffffffffffffffffffffffffffffffffffffffffffffffffffffff1916827bffffffffffffffffffffffffffffffffffffffffffffffffffffffff19161480610672575061067182610f40565b5b9050919050565b60605f805461068790612887565b80601f01602080910402602001604051908101604052809291908181526020018280546106b390612887565b80156106fe5780601f106106d5576101008083540402835291602001916106fe565b820191905f5260205f20905b8154815290600101906020018083116106e157829003601f168201915b5050505050905090565b5f61071282611021565b5061071c826110a7565b9050919050565b61073582826107306110e0565b6110e7565b5050565b600c54610744610826565b10610784576040517f08c379a000000000000000000000000000000000000000000000000000000000815260040161077b90612901565b60405180910390fd5b600b543410156107c9576040517f08c379a00000000000000000000000000000000000000000000000000000000081526004016107c090612969565b60405180910390fd5b5f60016107d4610826565b6107de91906129b4565b90506107ea33826110f9565b7f4cc0a9c4a99ddc700de1af2c9f916a7cbfdb71f14801ccff94061ad1ef8a8040338260405161081b9291906129e7565b60405180910390a150565b5f600880549050905090565b5f73ffffffffffffffffffffffffffffffffffffffff168273ffffffffffffffffffffffffffffffffffffffff16036108a2575f6040517f64a0ae9200000000000000000000000000000000000000000000000000000000815260040161089991906123ff565b60405180910390fd5b5f6108b583836108b06110e0565b6111ec565b90508373ffffffffffffffffffffffffffffffffffffffff168173ffffffffffffffffffffffffffffffffffffffff161461092b578382826040517f64283d7b00000000000000000000000000000000000000000000000000000000815260040161092293929190612a0e565b60405180910390fd5b50505050565b5f61093b83610bde565b82106109805782826040517fa57d13dc0000000000000000000000000000000000000000000000000000000081526004016109779291906129e7565b60405180910390fd5b60065f8473ffffffffffffffffffffffffffffffffffffffff1673ffffffffffffffffffffffffffffffffffffffff1681526020019081526020015f205f8381526020019081526020015f2054905092915050565b6109dd611306565b5f6109e6610ca7565b73ffffffffffffffffffffffffffffffffffffffff1647604051610a0990612a70565b5f6040518083038185875af1925050503d805f8114610a43576040519150601f19603f3d011682016040523d82523d5f602084013e610a48565b606091505b5050905080610a8c576040517f08c379a0000000000000000000000000000000000000000000000000000000008152600401610a8390612ace565b60405180910390fd5b50565b610aa983838360405180602001604052805f815250610d75565b505050565b5f610ab7610826565b8210610afc575f826040517fa57d13dc000000000000000000000000000000000000000000000000000000008152600401610af39291906129e7565b60405180910390fd5b60088281548110610b1057610b0f612aec565b5b905f5260205f2001549050919050565b610b28611306565b80600d9081610b379190612cb9565b5050565b5f610b4582611021565b9050919050565b600b5481565b600d8054610b5f90612887565b80601f0160208091040260200160405190810160405280929190818152602001828054610b8b90612887565b8015610bd65780601f10610bad57610100808354040283529160200191610bd6565b820191905f5260205f20905b815481529060010190602001808311610bb957829003601f168201915b505050505081565b5f5f73ffffffffffffffffffffffffffffffffffffffff168273ffffffffffffffffffffffffffffffffffffffff1603610c4f575f6040517f89c62b64000000000000000000000000000000000000000000000000000000008152600401610c4691906123ff565b60405180910390fd5b60035f8373ffffffffffffffffffffffffffffffffffffffff1673ffffffffffffffffffffffffffffffffffffffff1681526020019081526020015f20549050919050565b610c9c611306565b610ca55f61138d565b565b5f600a5f9054906101000a900473ffffffffffffffffffffffffffffffffffffffff16905090565b606060018054610cde90612887565b80601f0160208091040260200160405190810160405280929190818152602001828054610d0a90612887565b8015610d555780601f10610d2c57610100808354040283529160200191610d55565b820191905f5260205f20905b815481529060010190602001808311610d3857829003601f168201915b5050505050905090565b610d71610d6a6110e0565b8383611450565b5050565b610d80848484610832565b610d94610d8b6110e0565b858585856115b9565b50505050565b6060610da582611765565b610de4576040517f08c379a0000000000000000000000000000000000000000000000000000000008152600401610ddb90612dd2565b60405180910390fd5b600d610def836117a5565b604051602001610e00929190612ef4565b6040516020818303038152906040529050919050565b600c5481565b5f60055f8473ffffffffffffffffffffffffffffffffffffffff1673ffffffffffffffffffffffffffffffffffffffff1681526020019081526020015f205f8373ffffffffffffffffffffffffffffffffffffffff1673ffffffffffffffffffffffffffffffffffffffff1681526020019081526020015f205f9054906101000a900460ff16905092915050565b610eb2611306565b5f73ffffffffffffffffffffffffffffffffffffffff168173ffffffffffffffffffffffffffffffffffffffff1603610f22575f6040517f1e4fbdf7000000000000000000000000000000000000000000000000000000008152600401610f1991906123ff565b60405180910390fd5b610f2b8161138d565b50565b610f36611306565b80600b8190555050565b5f7f80ac58cd000000000000000000000000000000000000000000000000000000007bffffffffffffffffffffffffffffffffffffffffffffffffffffffff1916827bffffffffffffffffffffffffffffffffffffffffffffffffffffffff1916148061100a57507f5b5e139f000000000000000000000000000000000000000000000000000000007bffffffffffffffffffffffffffffffffffffffffffffffffffffffff1916827bffffffffffffffffffffffffffffffffffffffffffffffffffffffff1916145b8061101a57506110198261186f565b5b9050919050565b5f5f61102c836118d8565b90505f73ffffffffffffffffffffffffffffffffffffffff168173ffffffffffffffffffffffffffffffffffffffff160361109e57826040517f7e273289000000000000000000000000000000000000000000000000000000008152600401611095919061248f565b60405180910390fd5b80915050919050565b5f60045f8381526020019081526020015f205f9054906101000a900473ffffffffffffffffffffffffffffffffffffffff169050919050565b5f33905090565b6110f48383836001611911565b505050565b5f73ffffffffffffffffffffffffffffffffffffffff168273ffffffffffffffffffffffffffffffffffffffff1603611169575f6040517f64a0ae9200000000000000000000000000000000000000000000000000000000815260040161116091906123ff565b60405180910390fd5b5f61117583835f6111ec565b90505f73ffffffffffffffffffffffffffffffffffffffff168173ffffffffffffffffffffffffffffffffffffffff16146111e7575f6040517f73c6ac6e0000000000000000000000000000000000000000000000000000000081526004016111de91906123ff565b60405180910390fd5b505050565b5f5f6111f9858585611ad0565b90505f73ffffffffffffffffffffffffffffffffffffffff168173ffffffffffffffffffffffffffffffffffffffff160361123c5761123784611cdb565b61127b565b8473ffffffffffffffffffffffffffffffffffffffff168173ffffffffffffffffffffffffffffffffffffffff161461127a576112798185611d1f565b5b5b5f73ffffffffffffffffffffffffffffffffffffffff168573ffffffffffffffffffffffffffffffffffffffff16036112bc576112b784611df6565b6112fb565b8473ffffffffffffffffffffffffffffffffffffffff168173ffffffffffffffffffffffffffffffffffffffff16146112fa576112f98585611eb6565b5b5b809150509392505050565b61130e6110e0565b73ffffffffffffffffffffffffffffffffffffffff1661132c610ca7565b73ffffffffffffffffffffffffffffffffffffffff161461138b5761134f6110e0565b6040517f118cdaa700000000000000000000000000000000000000000000000000000000815260040161138291906123ff565b60405180910390fd5b565b5f600a5f9054906101000a900473ffffffffffffffffffffffffffffffffffffffff16905081600a5f6101000a81548173ffffffffffffffffffffffffffffffffffffffff021916908373ffffffffffffffffffffffffffffffffffffffff1602179055508173ffffffffffffffffffffffffffffffffffffffff168173ffffffffffffffffffffffffffffffffffffffff167f8be0079c531659141344cd1fd0a4f28419497f9722a3daafe3b4186f6b6457e060405160405180910390a35050565b5f73ffffffffffffffffffffffffffffffffffffffff168273ffffffffffffffffffffffffffffffffffffffff16036114c057816040517f5b08ba180000000000000000000000000000000000000000000000000000000081526004016114b791906123ff565b60405180910390fd5b8060055f8573ffffffffffffffffffffffffffffffffffffffff1673ffffffffffffffffffffffffffffffffffffffff1681526020019081526020015f205f8473ffffffffffffffffffffffffffffffffffffffff1673ffffffffffffffffffffffffffffffffffffffff1681526020019081526020015f205f6101000a81548160ff0219169083151502179055508173ffffffffffffffffffffffffffffffffffffffff168373ffffffffffffffffffffffffffffffffffffffff167f17307eab39ab6107e8899845ad3d59bd9653f200f220920489ca2b5937696c31836040516115ac91906122b9565b60405180910390a3505050565b5f8373ffffffffffffffffffffffffffffffffffffffff163b111561175e578273ffffffffffffffffffffffffffffffffffffffff1663150b7a02868685856040518563ffffffff1660e01b81526004016116179493929190612f74565b6020604051808303815f875af192505050801561165257506040513d601f19601f8201168201806040525081019061164f9190612fd2565b60015b6116d3573d805f8114611680576040519150601f19603f3d011682016040523d82523d5f602084013e611685565b606091505b505f8151036116cb57836040517f64a0ae920000000000000000000000000000000000000000000000000000000081526004016116c291906123ff565b60405180910390fd5b805181602001fd5b63150b7a0260e01b7bffffffffffffffffffffffffffffffffffffffffffffffffffffffff1916817bffffffffffffffffffffffffffffffffffffffffffffffffffffffff19161461175c57836040517f64a0ae9200000000000000000000000000000000000000000000000000000000815260040161175391906123ff565b60405180910390fd5b505b5050505050565b5f5f73ffffffffffffffffffffffffffffffffffffffff16611786836118d8565b73ffffffffffffffffffffffffffffffffffffffff1614159050919050565b60605f60016117b384611f3a565b0190505f8167ffffffffffffffff8111156117d1576117d0612500565b5b6040519080825280601f01601f1916602001820160405280156118035781602001600182028036833780820191505090505b5090505f82602001820190505b600115611864578080600190039150507f3031323334353637383961626364656600000000000000000000000000000000600a86061a8153600a858161185957611858612ffd565b5b0494505f8503611810575b819350505050919050565b5f7f01ffc9a7000000000000000000000000000000000000000000000000000000007bffffffffffffffffffffffffffffffffffffffffffffffffffffffff1916827bffffffffffffffffffffffffffffffffffffffffffffffffffffffff1916149050919050565b5f60025f8381526020019081526020015f205f9054906101000a900473ffffffffffffffffffffffffffffffffffffffff169050919050565b808061194957505f73ffffffffffffffffffffffffffffffffffffffff168273ffffffffffffffffffffffffffffffffffffffff1614155b15611a7b575f61195884611021565b90505f73ffffffffffffffffffffffffffffffffffffffff168373ffffffffffffffffffffffffffffffffffffffff16141580156119c257508273ffffffffffffffffffffffffffffffffffffffff168173ffffffffffffffffffffffffffffffffffffffff1614155b80156119d557506119d38184610e1c565b155b15611a1757826040517fa9fbf51f000000000000000000000000000000000000000000000000000000008152600401611a0e91906123ff565b60405180910390fd5b8115611a7957838573ffffffffffffffffffffffffffffffffffffffff168273ffffffffffffffffffffffffffffffffffffffff167f8c5be1e5ebec7d5bd14f71427d1e84f3dd0314c0f7b2291e5b200ac8c7c3b92560405160405180910390a45b505b8360045f8581526020019081526020015f205f6101000a81548173ffffffffffffffffffffffffffffffffffffffff021916908373ffffffffffffffffffffffffffffffffffffffff16021790555050505050565b5f5f611adb846118d8565b90505f73ffffffffffffffffffffffffffffffffffffffff168373ffffffffffffffffffffffffffffffffffffffff1614611b1c57611b1b81848661208b565b5b5f73ffffffffffffffffffffffffffffffffffffffff168173ffffffffffffffffffffffffffffffffffffffff1614611ba757611b5b5f855f5f611911565b600160035f8373ffffffffffffffffffffffffffffffffffffffff1673ffffffffffffffffffffffffffffffffffffffff1681526020019081526020015f205f82825403925050819055505b5f73ffffffffffffffffffffffffffffffffffffffff168573ffffffffffffffffffffffffffffffffffffffff1614611c2657600160035f8773ffffffffffffffffffffffffffffffffffffffff1673ffffffffffffffffffffffffffffffffffffffff1681526020019081526020015f205f82825401925050819055505b8460025f8681526020019081526020015f205f6101000a81548173ffffffffffffffffffffffffffffffffffffffff021916908373ffffffffffffffffffffffffffffffffffffffff160217905550838573ffffffffffffffffffffffffffffffffffffffff168273ffffffffffffffffffffffffffffffffffffffff167fddf252ad1be2c89b69c2b068fc378daa952ba7f163c4a11628f55a4df523b3ef60405160405180910390a4809150509392505050565b60088054905060095f8381526020019081526020015f2081905550600881908060018154018082558091505060019003905f5260205f20015f909190919091505550565b5f611d2983610bde565b90505f60075f8481526020019081526020015f205490505f60065f8673ffffffffffffffffffffffffffffffffffffffff1673ffffffffffffffffffffffffffffffffffffffff1681526020019081526020015f209050828214611dc8575f815f8581526020019081526020015f2054905080825f8581526020019081526020015f20819055508260075f8381526020019081526020015f2081905550505b60075f8581526020019081526020015f205f9055805f8481526020019081526020015f205f90555050505050565b5f6001600880549050611e09919061302a565b90505f60095f8481526020019081526020015f205490505f60088381548110611e3557611e34612aec565b5b905f5260205f20015490508060088381548110611e5557611e54612aec565b5b905f5260205f2001819055508160095f8381526020019081526020015f208190555060095f8581526020019081526020015f205f90556008805480611e9d57611e9c61305d565b5b600190038181905f5260205f20015f9055905550505050565b5f6001611ec284610bde565b611ecc919061302a565b90508160065f8573ffffffffffffffffffffffffffffffffffffffff1673ffffffffffffffffffffffffffffffffffffffff1681526020019081526020015f205f8381526020019081526020015f20819055508060075f8481526020019081526020015f2081905550505050565b5f5f5f90507a184f03e93ff9f4daa797ed6e38ed64bf6a1f0100000000000000008310611f96577a184f03e93ff9f4daa797ed6e38ed64bf6a1f0100000000000000008381611f8c57611f8b612ffd565b5b0492506040810190505b6d04ee2d6d415b85acef81000000008310611fd3576d04ee2d6d415b85acef81000000008381611fc957611fc8612ffd565b5b0492506020810190505b662386f26fc10000831061200257662386f26fc100008381611ff857611ff7612ffd565b5b0492506010810190505b6305f5e100831061202b576305f5e100838161202157612020612ffd565b5b0492506008810190505b612710831061205057612710838161204657612045612ffd565b5b0492506004810190505b60648310612073576064838161206957612068612ffd565b5b0492506002810190505b600a8310612082576001810190505b80915050919050565b61209683838361214e565b612149575f73ffffffffffffffffffffffffffffffffffffffff168373ffffffffffffffffffffffffffffffffffffffff160361210a57806040517f7e273289000000000000000000000000000000000000000000000000000000008152600401612101919061248f565b60405180910390fd5b81816040517f177e802f0000000000000000000000000000000000000000000000000000000081526004016121409291906129e7565b60405180910390fd5b505050565b5f5f73ffffffffffffffffffffffffffffffffffffffff168373ffffffffffffffffffffffffffffffffffffffff161415801561220557508273ffffffffffffffffffffffffffffffffffffffff168473ffffffffffffffffffffffffffffffffffffffff1614806121c657506121c58484610e1c565b5b8061220457508273ffffffffffffffffffffffffffffffffffffffff166121ec836110a7565b73ffffffffffffffffffffffffffffffffffffffff16145b5b90509392505050565b5f604051905090565b5f5ffd5b5f5ffd5b5f7fffffffff0000000000000000000000000000000000000000000000000000000082169050919050565b6122538161221f565b811461225d575f5ffd5b50565b5f8135905061226e8161224a565b92915050565b5f6020828403121561228957612288612217565b5b5f61229684828501612260565b91505092915050565b5f8115159050919050565b6122b38161229f565b82525050565b5f6020820190506122cc5f8301846122aa565b92915050565b5f81519050919050565b5f82825260208201905092915050565b8281835e5f83830152505050565b5f601f19601f8301169050919050565b5f612314826122d2565b61231e81856122dc565b935061232e8185602086016122ec565b612337816122fa565b840191505092915050565b5f6020820190508181035f83015261235a818461230a565b905092915050565b5f819050919050565b61237481612362565b811461237e575f5ffd5b50565b5f8135905061238f8161236b565b92915050565b5f602082840312156123aa576123a9612217565b5b5f6123b784828501612381565b91505092915050565b5f73ffffffffffffffffffffffffffffffffffffffff82169050919050565b5f6123e9826123c0565b9050919050565b6123f9816123df565b82525050565b5f6020820190506124125f8301846123f0565b92915050565b612421816123df565b811461242b575f5ffd5b50565b5f8135905061243c81612418565b92915050565b5f5f6040838503121561245857612457612217565b5b5f6124658582860161242e565b925050602061247685828601612381565b9150509250929050565b61248981612362565b82525050565b5f6020820190506124a25f830184612480565b92915050565b5f5f5f606084860312156124bf576124be612217565b5b5f6124cc8682870161242e565b93505060206124dd8682870161242e565b92505060406124ee86828701612381565b9150509250925092565b5f5ffd5b5f5ffd5b7f4e487b71000000000000000000000000000000000000000000000000000000005f52604160045260245ffd5b612536826122fa565b810181811067ffffffffffffffff8211171561255557612554612500565b5b80604052505050565b5f61256761220e565b9050612573828261252d565b919050565b5f67ffffffffffffffff82111561259257612591612500565b5b61259b826122fa565b9050602081019050919050565b828183375f83830152505050565b5f6125c86125c384612578565b61255e565b9050828152602081018484840111156125e4576125e36124fc565b5b6125ef8482856125a8565b509392505050565b5f82601f83011261260b5761260a6124f8565b5b813561261b8482602086016125b6565b91505092915050565b5f6020828403121561263957612638612217565b5b5f82013567ffffffffffffffff8111156126565761265561221b565b5b612662848285016125f7565b91505092915050565b5f602082840312156126805761267f612217565b5b5f61268d8482850161242e565b91505092915050565b61269f8161229f565b81146126a9575f5ffd5b50565b5f813590506126ba81612696565b92915050565b5f5f604083850312156126d6576126d5612217565b5b5f6126e38582860161242e565b92505060206126f4858286016126ac565b9150509250929050565b5f67ffffffffffffffff82111561271857612717612500565b5b612721826122fa565b9050602081019050919050565b5f61274061273b846126fe565b61255e565b90508281526020810184848401111561275c5761275b6124fc565b5b6127678482856125a8565b509392505050565b5f82601f830112612783576127826124f8565b5b813561279384826020860161272e565b91505092915050565b5f5f5f5f608085870312156127b4576127b3612217565b5b5f6127c18782880161242e565b94505060206127d28782880161242e565b93505060406127e387828801612381565b925050606085013567ffffffffffffffff8111156128045761280361221b565b5b6128108782880161276f565b91505092959194509250565b5f5f6040838503121561283257612831612217565b5b5f61283f8582860161242e565b92505060206128508582860161242e565b9150509250929050565b7f4e487b71000000000000000000000000000000000000000000000000000000005f52602260045260245ffd5b5f600282049050600182168061289e57607f821691505b6020821081036128b1576128b061285a565b5b50919050565b7f4d617820737570706c79207265616368656400000000000000000000000000005f82015250565b5f6128eb6012836122dc565b91506128f6826128b7565b602082019050919050565b5f6020820190508181035f830152612918816128df565b9050919050565b7f496e73756666696369656e74207061796d656e740000000000000000000000005f82015250565b5f6129536014836122dc565b915061295e8261291f565b602082019050919050565b5f6020820190508181035f83015261298081612947565b9050919050565b7f4e487b71000000000000000000000000000000000000000000000000000000005f52601160045260245ffd5b5f6129be82612362565b91506129c983612362565b92508282019050808211156129e1576129e0612987565b5b92915050565b5f6040820190506129fa5f8301856123f0565b612a076020830184612480565b9392505050565b5f606082019050612a215f8301866123f0565b612a2e6020830185612480565b612a3b60408301846123f0565b949350505050565b5f81905092915050565b50565b5f612a5b5f83612a43565b9150612a6682612a4d565b5f82019050919050565b5f612a7a82612a50565b9150819050919050565b7f5769746864726177616c206661696c65640000000000000000000000000000005f82015250565b5f612ab86011836122dc565b9150612ac382612a84565b602082019050919050565b5f6020820190508181035f830152612ae581612aac565b9050919050565b7f4e487b71000000000000000000000000000000000000000000000000000000005f52603260045260245ffd5b5f819050815f5260205f209050919050565b5f6020601f8301049050919050565b5f82821b905092915050565b5f60088302612b757fffffffffffffffffffffffffffffffffffffffffffffffffffffffffffffffff82612b3a565b612b7f8683612b3a565b95508019841693508086168417925050509392505050565b5f819050919050565b5f612bba612bb5612bb084612362565b612b97565b612362565b9050919050565b5f819050919050565b612bd383612ba0565b612be7612bdf82612bc1565b848454612b46565b825550505050565b5f5f905090565b612bfe612bef565b612c09818484612bca565b505050565b5b81811015612c2c57612c215f82612bf6565b600181019050612c0f565b5050565b601f821115612c7157612c4281612b19565b612c4b84612b2b565b81016020851015612c5a578190505b612c6e612c6685612b2b565b830182612c0e565b50505b505050565b5f82821c905092915050565b5f612c915f1984600802612c76565b1980831691505092915050565b5f612ca98383612c82565b9150826002028217905092915050565b612cc2826122d2565b67ffffffffffffffff811115612cdb57612cda612500565b5b612ce58254612887565b612cf0828285612c30565b5f60209050601f831160018114612d21575f8415612d0f578287015190505b612d198582612c9e565b865550612d80565b601f198416612d2f86612b19565b5f5b82811015612d5657848901518255600182019150602085019450602081019050612d31565b86831015612d735784890151612d6f601f891682612c82565b8355505b6001600288020188555050505b505050505050565b7f546f6b656e20646f6573206e6f742065786973740000000000000000000000005f82015250565b5f612dbc6014836122dc565b9150612dc782612d88565b602082019050919050565b5f6020820190508181035f830152612de981612db0565b9050919050565b5f81905092915050565b5f8154612e0681612887565b612e108186612df0565b9450600182165f8114612e2a5760018114612e3f57612e71565b60ff1983168652811515820286019350612e71565b612e4885612b19565b5f5b83811015612e6957815481890152600182019150602081019050612e4a565b838801955050505b50505092915050565b5f612e84826122d2565b612e8e8185612df0565b9350612e9e8185602086016122ec565b80840191505092915050565b7f2e6a736f6e0000000000000000000000000000000000000000000000000000005f82015250565b5f612ede600583612df0565b9150612ee982612eaa565b600582019050919050565b5f612eff8285612dfa565b9150612f0b8284612e7a565b9150612f1682612ed2565b91508190509392505050565b5f81519050919050565b5f82825260208201905092915050565b5f612f4682612f22565b612f508185612f2c565b9350612f608185602086016122ec565b612f69816122fa565b840191505092915050565b5f608082019050612f875f8301876123f0565b612f9460208301866123f0565b612fa16040830185612480565b8181036060830152612fb38184612f3c565b905095945050505050565b5f81519050612fcc8161224a565b92915050565b5f60208284031215612fe757612fe6612217565b5b5f612ff484828501612fbe565b91505092915050565b7f4e487b71000000000000000000000000000000000000000000000000000000005f52601260045260245ffd5b5f61303482612362565b915061303f83612362565b925082820390508181111561305757613056612987565b5b92915050565b7f4e487b71000000000000000000000000000000000000000000000000000000005f52603160045260245ffdfea2646970667358221220560b7b16893a9b0b0c3f9f4f6d608e7801d2872a275a1b58b9aa1efd4847baf664736f6c634300081c0033","linkReferences":{}},"methodIdentifiers":{"approve(address,uint256)":"095ea7b3","balanceOf(address)":"70a08231","baseURI()":"6c0360eb","getApproved(uint256)":"081812fc","isApprovedForAll(address,address)":"e985e9c5","maxSupply()":"d5abeb01","mint()":"1249c58b","mintPrice()":"6817c76c","name()":"06fdde03","owner()":"8da5cb5b","ownerOf(uint256)":"6352211e","renounceOwnership()":"715018a6","safeTransferFrom(address,address,uint256)":"42842e0e","safeTransferFrom(address,address,uint256,bytes)":"b88d4fde","setApprovalForAll(address,bool)":"a22cb465","setBaseURI(string)":"55f804b3","setMintPrice(uint256)":"f4a0a528","supportsInterface(bytes4)":"01ffc9a7","symbol()":"95d89b41","tokenByIndex(uint256)":"4f6ccce7","tokenOfOwnerByIndex(address,uint256)":"2f745c59","tokenURI(uint256)":"c87b56dd","totalSupply()":"18160ddd","transferFrom(address,address,uint256)":"23b872dd","transferOwnership(address)":"f2fde38b","withdraw()":"3ccfd60b"},"id":37}